S01D00002E2F44656275672F67726170686963646973706C61792E73313990
S315200000000248854600F017FAFEE7C04600C00120E8
S3152000001080B500AF024B034A1A60C046BD4680BD7C
S31520000020001002405555555580B500AF0C4B0022A7
S315200000301A700C4B29221A600B4B00221A60084BAF
S3152000004005221A70C046094B1B78DBB21A00012321
S315200000501340F8D1024B00221A70C046BD4680BD1F
S3152000006010E000E014E000E018E000E012E000E01C
S3152000007080B500AFFFF7D8FFFFF7D6FFC046BD46D5
S3152000008080BD80B584B000AF78600023FB6004E0BB
S31520000090FFF7CAFFFB680133FB607B689A00FB68A9
S315200000A09A42F5D8C046C046BD4604B080BD80B54C
S315200000B084B000AF78600023FB6007E0FA239B0042
S315200000C01800FFF7DEFFFB680133FB60FB687A68E8
S315200000D09A42F3D8C046C046BD4604B080BD80B51E
S315200000E082B000AF0200FB1D1A700D4B1B78DBB2ED
S315200000F05AB2FB1D1B785BB204218B435BB21343C0
S315200001005AB2074BD2B21A70054B1B78DBB2044A9F
S3152000011004218B43DBB21370C046BD4602B080BDBE
S315200001201410024080B582B000AF0200FB1D1A7089
S315200001300A4B1B78DBB25BB2FA1D127804210A4304
S31520000140D2B252B2D24352B213405AB2034BD2B2B7
S315200001501A70C046BD4602B080BDC046141002408B
S3152000016080B582B000AF0200FB1D1A70FB1D1B7804
S31520000170182B1AD01DDC102B10D01ADC002B02D025
S31520000180082B04D015E01820FFF7CCFF12E0102032
S31520000190FFF7C8FF0820FFF7A2FF0BE00820FFF7B4
S315200001A0C1FF1020FFF79BFF04E01820FFF797FF01
S315200001B000E0C046BD4602B080BD80B500AF4020FD
S315200001C0FFF7B0FF124B134A1A600220FFF787FF92
S315200001D00120FFF7A7FFFFF74BFF4020FFF77FFF28
S315200001E0FFF746FF4020FFF79DFFFFF741FF0A4B31
S315200001F01B78DBB25BB2002B00DAEEE7C04640206C
S31520000200FFF76DFF024B054A1A60C046BD4680BD0A
S315200002100010024055550000111002405555555505
S3152000022080B584B000AF0200FB1D1A704020FFF796
S3152000023079FF1B4B1B4A1A600320FFF750FFFB1D5B
S315200002401B781800FFF78CFFFFF712FF4020FFF7FF
S3152000025046FFFFF70DFF144A0F23FB1812781A707A
S315200002604020FFF75FFF0E4B104A1A60FB1D1B78DC
S31520000270082B04D10820FFF773FFFFF79EFFFB1D15
S315200002801B78102B04D11020FFF76AFFFFF795FF8C
S315200002900F23FB181B781800BD4604B080BDC0464E
S315200002A00010024055550000111002405555555575
S315200002B080B582B000AF0200FB1D1A70BB1D0A1C60
S315200002C01A701A4AFB1D1B781370BB1D1B78180069
S315200002D0FFF746FFFFF7CCFE4020FFF700FFFFF7B2
S315200002E0C7FE4020FFF71EFFBB1D1B7808221340C8
S315200002F004D00820FFF734FFFFF75FFFBB1D1B78F4
S315200003001022134004D01020FFF72AFFFFF755FFD5
S31520000310064B00221A704020FFF7E1FE0020FFF76F
S315200003201FFFC046BD4602B080BDC0461510024024
S3152000033080B582B000AF0200FB1D1A70BB1D0A1CDF
S315200003401A704020FFF7EEFEBB1D1B781800FFF742
S3152000035007FF0320FFF7E6FEBB1D1A78FB1D1B785F
S3152000036011001800FFF7A4FFC046BD4602B080BDAD
S3152000037080B582B000AF0200FB1D1A70BB1D0A1C9F
S315200003801A704020FFF7CEFEBB1D1B781800FFF722
S31520000390E7FE0120FFF7A3FE0220FFF7C3FEBB1DE9
S315200003A01A78FB1D1B7811001800FFF781FFC04645
S315200003B0BD4602B080BD80B582B000AF0200FB1DF5
S315200003C01A70FB1D1B781800FFF72AFFFB1D1B78F0
S315200003D01800FFF725FF03001800BD4602B080BDB8
S315200003E080B500AF4020FFF77AFE0A20FFF749FECE
S315200003F07820FFF797FE1E20FFF759FE2020FFF7F3
S315200004006EFE18213E20FFF793FF18213F20FFF7AD
S315200004108FFF1821C020FFF78BFF18214020FFF700
S3152000042087FF1821B820FFF783FF0020FFF798FEEB
S31520000430C046BD4680BD80B500AFC046BD4680BD26
S70520000000DA
