S01700002E2F44656275672F6175746F706F6E672E733139FD
S315200000000248854600F014FCFEE7C04600C00120E9
S3152000001080B500AF024B034A1A60C046BD4680BD7C
S31520000020001002405555555580B500AF0C4B0022A7
S315200000301A700C4B29221A600B4B00221A60084BAF
S3152000004005221A70C046094B1B78DBB21A00012321
S315200000501340F8D1024B00221A70C046BD4680BD1F
S3152000006010E000E014E000E018E000E012E000E01C
S3152000007080B500AFFFF7D8FFFFF7D6FFC046BD46D5
S3152000008080BD80B584B000AF78607B68FA2291008D
S31520000090180000F0E9FB03007B607B6801337B607E
S315200000A00023FB6004E0FFF7BFFFFB680133FB6022
S315200000B07B689A00FB689A42F5D8C046C046BD4682
S315200000C004B080BD80B584B000AF78607B68FA222A
S315200000D09100180000F0C8FB03007B607B680133A9
S315200000E07B600023FB6007E0FA239B001800FFF7E4
S315200000F0C8FFFB680133FB60FB687A689A42F3D835
S31520000100C046C046BD4604B080BD80B582B000AFB3
S315200001100200FB1D1A700D4B1B78DBB25AB2FB1D79
S315200001201B785BB204218B435BB213435AB2074B55
S31520000130D2B21A70054B1B78DBB2044A04218B43DA
S31520000140DBB21370C046BD4602B080BD141002401B
S3152000015080B582B000AF0200FB1D1A700A4B1B78D7
S31520000160DBB25BB2FA1D127804210A43D2B252B234
S31520000170D24352B213405AB2034BD2B21A70C0467F
S31520000180BD4602B080BDC0461410024080B582B084
S3152000019000AF0200FB1D1A70FB1D1B78182B1AD00E
S315200001A01DDC102B10D01ADC002B02D0082B04D01B
S315200001B015E01820FFF7CCFF12E01020FFF7C8FF4C
S315200001C00820FFF7A2FF0BE00820FFF7C1FF102051
S315200001D0FFF79BFF04E01820FFF797FF00E0C046DB
S315200001E0BD4602B080BD80B500AF4020FFF7B0FF0E
S315200001F0124B134A1A600220FFF787FF0120FFF7F0
S31520000200A7FFFFF735FF4020FFF77FFFFFF730FFFF
S315200002104020FFF79DFFFFF72BFF0A4B1B78DBB231
S315200002205BB2002B00DAEEE7C0464020FFF76DFFF9
S31520000230024B054A1A60C046BD4680BD00100240EA
S3152000024055550000111002405555555580B584B0BE
S3152000025000AF0200FB1D1A704020FFF779FF1B4BF1
S315200002601B4A1A600320FFF750FFFB1D1B7818005E
S31520000270FFF78CFFFFF7FCFE4020FFF746FFFFF756
S31520000280F7FE144A0F23FB1812781A704020FFF746
S315200002905FFF0E4B104A1A60FB1D1B78082B04D1FA
S315200002A00820FFF773FFFFF79EFFFB1D1B78102B1F
S315200002B004D11020FFF76AFFFFF795FF0F23FB18E5
S315200002C01B781800BD4604B080BDC0460010024011
S315200002D055550000111002405555555580B582B030
S315200002E000AF0200FB1D1A70BB1D0A1C1A701A4AA9
S315200002F0FB1D1B781370BB1D1B781800FFF746FFEC
S31520000300FFF7B6FE4020FFF700FFFFF7B1FE4020C3
S31520000310FFF71EFFBB1D1B780822134004D00820C0
S31520000320FFF734FFFFF75FFFBB1D1B78102213403A
S3152000033004D01020FFF72AFFFFF755FF064B0022B7
S315200003401A704020FFF7E1FE0020FFF71FFFC0468E
S31520000350BD4602B080BDC0461510024080B582B0B1
S3152000036000AF0200FB1D1A70BB1D0A1C1A7040202C
S31520000370FFF7EEFEBB1D1B781800FFF707FF0320D3
S31520000380FFF7E6FEBB1D1A78FB1D1B78110018002F
S31520000390FFF7A4FFC046BD4602B080BD80B582B03F
S315200003A000AF0200FB1D1A70BB1D0A1C1A704020EC
S315200003B0FFF7CEFEBB1D1B781800FFF7E7FE0120D6
S315200003C0FFF7A3FE0220FFF7C3FEBB1D1A78FB1D15
S315200003D01B7811001800FFF781FFC046BD4602B00A
S315200003E080BD80B582B000AF0200FB1D1A70FB1DD8
S315200003F01B781800FFF72AFFFB1D1B781800FFF754
S3152000040025FF03001800BD4602B080BD80B500AFB1
S315200004104020FFF77AFE0A20FFF733FE7820FFF709
S3152000042097FE1E20FFF74EFE2020FFF76EFE1821B6
S315200004303E20FFF793FF18213F20FFF78FFF18215B
S31520000440C020FFF78BFF18214020FFF787FF1821D8
S31520000450B820FFF783FF0020FFF798FEC046BD4671
S3152000046080BD80B582B000AFFB1D00221A7023E04C
S31520000470FB1D1B78482252421343DBB21821180079
S31520000480FFF76CFF18214020FFF768FFBB1D0022F5
S315200004901A7008E018210020FFF780FFBB1D1A788C
S315200004A0BB1D01321A70BB1D1B783F2BF2D9FB1DD9
S315200004B01A78FB1D01321A70FB1D1B78072BD7D922
S315200004C0C046C046BD4602B080BDF0B585B000AF7F
S315200004D0040008001100FB1D221C1A70BB1D021C03
S315200004E01A707B1D0A1C1A70FB1D1B78802B00D9E5
S315200004F0BDE0BB1D1B78402B00D9B8E0BB1D1B7887
S31520000500013B002B00DA0733DB101A000C23FB1803
S315200005101A70BB1D1B78013B574A134004D5013B7B
S315200005200822524213430133072B2CD89A00534BEF
S31520000530D3181B689F460F23FB1801221A7023E04D
S315200005400F23FB1802221A701EE00F23FB18042229
S315200005501A7019E00F23FB1808221A7014E00F23D3
S31520000560FB1810221A700FE00F23FB1820221A7096
S315200005700AE00F23FB1840221A7005E00F23FB1810
S3152000058080221A7000E0C0467B1D1B78002B05D107
S315200005900F22BB18BA181278D2431A70FB1D1B788B
S315200005A0402B0AD90E23FB1810221A700D23FB1894
S315200005B0FA1D1278413A1A7009E00E23FB18082218
S315200005C01A700D23FB18FA1D1278013A1A700D269F
S315200005D0BB191B7840221343DAB20E257B191B78F0
S315200005E019001000FFF7BAFE0C23FB181B784822CF
S315200005F052421343DAB27B191B7819001000FFF719
S31520000600ADFE0B23FC187B191B781800FFF7E9FEBB
S3152000061003002370BB191B7840221343DAB27B19DF
S315200006201B7819001000FFF799FE7B1D1B78012B04
S3152000063009D10F217B1879180B22BA18097812785C
S315200006400A431A7008E00F22BB18BA180B21791832
S31520000650127809780A401A700E23FB181A780F238D
S31520000660FB181B7811001800FFF798FE00E0C04623
S31520000670BD4605B0F0BDC04607000080D809002061
S3152000068080B584B000AFF860B9607A60FB68BA685C
S315200006905A60FB687A689A60C046BD4604B080BD41
S315200006A080B584B000AF78600023FB6020E07B68D3
S315200006B01A68FB6804335B00D31804331A787B6806
S315200006C0DB68DBB2D318D8B27B681A68FB680433C0
S315200006D05B00D31805331A787B681B69DBB2D31805
S315200006E0DBB201221900FFF7F0FEFB680133FB6045
S315200006F07B681B681B68FA689A42D8DBC046C046EE
S31520000700BD4604B080BD80B584B000AF78600023BC
S31520000710FB6020E07B681A68FB6804335B00D31813
S3152000072004331A787B68DB68DBB2D318D8B27B68CF
S315200007301A68FB6804335B00D31805331A787B6884
S315200007401B69DBB2D318DBB200221900FFF7BDFE0E
S31520000750FB680133FB607B681B681B68FA689A425A
S31520000760D8DBC046C046BD4604B080BD80B584B047
S3152000077000AF78607B681800FFF7C5FF7B68DA68F2
S315200007807B685B68D318FB607B681A697B689B680B
S31520000790D318BB60FB68002B08DC7B685B685A4279
S315200007A07B685A607B680122DA6016E07B681B68EA
S315200007B05A68FB68D318802B0CDD7B685B685A422D
S315200007C07B685A607B681B685B688022D21A7B68CC
S315200007D0DA6002E07B68FA68DA60BB68002B08DC26
S315200007E07B689B685A427B689A607B6801221A6103
S315200007F016E07B681B689A68BB68D318402B0CDD13
S315200008007B689B685A427B689A607B681B689B68FA
S315200008104022D21A7B681A6102E07B68BA681A61A4
S315200008207B681800FFF73CFFC046BD4604B080BD7C
S3152000083080B582B000AF0B4B7B60FFF7E9FBFFF77B
S31520000840E5FD7B681B6A0A2252420A2149427868E2
S3152000085098477B68DB697A68100098472820FFF75D
S3152000086031FCF6E7B4090020002243088B4274D3FA
S3152000087003098B425FD3030A8B4244D3030B8B427B
S3152000088028D3030C8B420DD3FF22090212BA030C84
S315200008908B4202D31212090265D0030B8B4219D365
S315200008A000E0090AC30B8B4201D3CB03C01A524185
S315200008B0830B8B4201D38B03C01A5241430B8B42CD
S315200008C001D34B03C01A5241030B8B4201D30B03B6
S315200008D0C01A5241C30A8B4201D3CB02C01A5241DD
S315200008E0830A8B4201D38B02C01A5241430A8B42A0
S315200008F001D34B02C01A5241030A8B4201D30B0289
S31520000900C01A5241CDD2C3098B4201D3CB01C01AA2
S31520000910524183098B4201D38B01C01A52414309AC
S315200009208B4201D34B01C01A524103098B4201D39A
S315200009300B01C01A5241C3088B4201D3CB00C01A07
S31520000940524183088B4201D38B00C01A524143087F
S315200009508B4201D34B00C01A5241411A00D20146A4
S31520000960524110467047FFE701B5002000F006F817
S3152000097002BDC0460029F7D076E770477047C046CB
S315200009800C0000000400000004000000000100022A
S315200009900100010101020103020002010202020319
S315200009A00301030200000000000000000000000018
S315200009B00000000080090020000000000000000068
S315200009C00000000000000000A1060020070700200C
S315200009D06D070020810600203605002040050020F6
S315200009E04A050020540500205E05002068050020E9
S30D200009F0720500207C050020A1
S70520000000DA
