S01B00002E2F44656275672F666F7572506F696E7454776F2E73313966
S315200000000248854600F0E4F8FEE7C04600C001201D
S3152000001080B500AF064B074A1A60074BAA22120486
S315200000201A60064B00221A80C046BD4680BDC046D7
S31520000030000C024055550055300C0240080C024079
S3152000004080B582B000AF00237B6019E07B68180082
S3152000005000F01EF800F068F80200FB1C1A70FB1C6A
S315200000601B78042B09D07B68180000F043F80200A7
S31520000070BB1C1A70BB1C1B7806E07B6801337B60B7
S315200000807B68032BE2DDFF231800BD4602B080BD4E
S3152000009080B582B000AF78607B68032B1BD07B686D
S315200000A0032B1CDC7B68022B11D07B68022B16DC11
S315200000B07B68002B03D07B68012B04D00FE00C4B10
S315200000C010221A700FE00A4B20221A700BE0084B00
S315200000D040221A7007E0064B80221A7003E0044B78
S315200000E000221A70C046C046BD4602B080BDC0463A
S315200000F0150C0240B0B586B000AF786008243B19D5
S31520000100084A23CA23C312681A6000F00DF80100BA
S315200001103A197B689B00D3185B5C1800BD4606B075
S31520000120B0BDC046E801002080B582B000AF124ABB
S31520000130FB1D12781A70FB1D1B780822134001D074
S31520000140032315E0FB1D1B780422134001D0022354
S315200001500EE0FB1D1B780222134001D0012307E08D
S31520000160FB1D1B780122134001D0002300E004234D
S315200001701800BD4602B080BD110C0240B0B588B053
S3152000018000AF0200FB1D1A700C217B180E4A31CAE3
S3152000019031C312681A60FB1D1B780F2B07D8FB1D75
S315200001A01A781F23FB1879188A5C1A7003E01F231C
S315200001B0FB1800221A70054A1F23FB181B781370A0
S315200001C0C046BD4608B0B0BDF8010020140C024060
S315200001D080B500AFFFF71CFFFFF732FF03001800C2
S315200001E0FFF7CCFFF8E7C0460102030A0405060B19
S315200001F00708090C0D000E0D3F065B4F666D7D0747
S30D200002007F6F777C395E79716E
S70520000000DA
