S01D00002E2F44656275672F67726170686963646973706C61792E73313990
S315200000000248854600F040FBFEE7C04600C00120BE
S3152000001080B500AF024B034A1A60C046BD4680BD7C
S31520000020001002405555555580B500AF0C4B0022A7
S315200000301A700C4B29221A600B4B00221A60084BAF
S3152000004005221A70C046094B1B78DBB21A00012321
S315200000501340F8D0024B00221A70C046BD4680BD20
S3152000006010E000E014E000E018E000E012E000E01C
S3152000007080B584B000AF78607B68FA2291001800C2
S3152000008000F066FB03007B607B6801337B60002306
S31520000090FB6004E0FFF7C8FFFB680133FB607B6869
S315200000A09A00FB689A42F5D8C046C046BD4604B0C1
S315200000B080BD80B584B000AF78607B68FA2291005D
S315200000C0180000F045FB03007B607B6801337B60F2
S315200000D00023FB6007E0FA239B001800FFF7C8FF08
S315200000E0FB680133FB60FB687A689A42F3D8C04606
S315200000F0C046BD4604B080BD80B500AFFFF794FF73
S31520000100FFF792FFC046BD4680BD80B582B000AFE6
S315200001100200FB1D1A700D4B1B78DBB25AB2FB1D79
S315200001201B785BB204218B435BB213435AB2074B55
S31520000130D2B21A70054B1B78DBB2044A04218B43DA
S31520000140DBB21370C046BD4602B080BD141002401B
S3152000015080B582B000AF0200FB1D1A700A4B1B78D7
S31520000160DBB25BB2FA1D127804210A43D2B252B234
S31520000170D24352B213405AB2034BD2B21A70C0467F
S31520000180BD4602B080BDC0461410024080B584B082
S3152000019000AF0200FB1D1A700F23FB1800221A70F5
S315200001A0FB1D1B78182B1AD01DDC102B10D01ADC47
S315200001B0002B02D0082B04D015E01820FFF7C8FF2B
S315200001C012E01020FFF7C4FF0820FFF79EFF0BE088
S315200001D00820FFF7BDFF1020FFF797FF04E0182047
S315200001E0FFF793FF00E0C046BD4604B080BD80B552
S315200001F000AF4020FFF7ACFF124B134A1A600220D3
S31520000200FFF783FF0120FFF7A3FFFFF775FF4020CD
S31520000210FFF77BFFFFF770FF4020FFF799FFFFF7FF
S315200002206BFF0A4B1B78DBB25BB2002B00DAEEE7E2
S31520000230C0464020FFF769FF024B054A1A60C046B8
S31520000240BD4680BD001002405555000011100240E9
S315200002505555555580B584B000AF0200FB1D1A7068
S315200002604020FFF775FF1B4B1B4A1A600320FFF740
S315200002704CFFFB1D1B781800FFF788FFFFF73CFF9C
S315200002804020FFF742FFFFF737FF144A0F23FB18E2
S3152000029012781A704020FFF75BFF0E4B104A1A6047
S315200002A0FB1D1B78082B04D10820FFF76FFFFFF7F3
S315200002B09EFFFB1D1B78102B04D11020FFF766FF35
S315200002C0FFF795FF0F23FB181B781800BD4604B0D7
S315200002D080BDC04600100240555500001110024056
S315200002E05555555580B582B000AF0200FB1D1A70DA
S315200002F0BB1D0A1C1A701A4AFB1D1B781370BB1DE6
S315200003001B781800FFF742FFFFF7F6FE4020FFF7A5
S31520000310FCFEFFF7F1FE4020FFF71AFFBB1D1B78FE
S315200003200822134004D00820FFF730FFFFF75FFFB5
S31520000330BB1D1B781022134004D01020FFF726FF88
S31520000340FFF755FF064B00221A704020FFF7DDFE0F
S315200003500020FFF71BFFC046BD4602B080BDC04649
S315200003601510024080B582B000AF0200FB1D1A7046
S31520000370BB1D0A1C1A704020FFF7EAFEBB1D1B7826
S315200003801800FFF703FF0320FFF7E2FEBB1D1A78D4
S31520000390FB1D1B7811001800FFF7A4FFC046BD46C1
S315200003A002B080BD80B582B000AF0200FB1D1A707E
S315200003B0BB1D0A1C1A704020FFF7CAFEBB1D1B7806
S315200003C01800FFF7E3FE0120FFF79FFE0220FFF74C
S315200003D0BFFEBB1D1A78FB1D1B7811001800FFF706
S315200003E081FFC046BD4602B080BD80B582B000AF59
S315200003F00200FB1D1A70FB1D1B781800FFF72AFF51
S31520000400FB1D1B781800FFF725FF03001800BD46CB
S3152000041002B080BD80B500AF4020FFF776FE0A20EF
S31520000420FFF726FE7820FFF793FE1E20FFF741FEFA
S315200004302020FFF76AFE18213E20FFF793FF1821A0
S315200004403F20FFF78FFF1821C020FFF78BFF1821D1
S315200004504020FFF787FF1821B820FFF783FF0020F1
S31520000460FFF794FEC046BD4680BD80B582B000AF82
S31520000470FB1D00221A7023E0FB1D1B7848225242E6
S315200004801343DBB218211800FFF76CFF1821402018
S31520000490FFF768FFBB1D00221A7008E01821002014
S315200004A0FFF780FFBB1D1A78BB1D01321A70BB1DDA
S315200004B01B783F2BF2D9FB1D1A78FB1D01321A70CF
S315200004C0FB1D1B78072BD7D9C046C046BD4602B0B8
S315200004D080BDF0B585B000AF040008001100FB1DFB
S315200004E0221C1A70BB1D021C1A707B1D0A1C1A7056
S315200004F0FB1D1B78802B00D9BDE0BB1D1B78402B34
S3152000050000D9B8E0BB1D1B78013B002B00DA07336E
S31520000510DB101A000C23FB181A70BB1D1B78013B3D
S31520000520574A134004D5013B082252421343013354
S31520000530072B2CD89A00534BD3181B689F460F23A2
S31520000540FB1801221A7023E00F23FB1802221A70CF
S315200005501EE00F23FB1804221A7019E00F23FB1844
S3152000056008221A7014E00F23FB1810221A700FE0CD
S315200005700F23FB1820221A700AE00F23FB184022B3
S315200005801A7005E00F23FB1880221A7000E0C0467F
S315200005907B1D1B78002B05D10F22BB18BA181278A9
S315200005A0D2431A70FB1D1B78402B0AD90E23FB1849
S315200005B010221A700D23FB18FA1D1278413A1A7070
S315200005C009E00E23FB1808221A700D23FB18FA1DCA
S315200005D01278013A1A700D26BB191B784022134354
S315200005E0DAB20E257B191B7819001000FFF7BAFE28
S315200005F00C23FB181B78482252421343DAB27B198C
S315200006001B7819001000FFF7ADFE0B23FC187B1991
S315200006101B781800FFF7E9FE03002370BB191B782F
S3152000062040221343DAB27B191B7819001000FFF71A
S3152000063099FE7B1D1B78012B09D10F217B18791878
S315200006400B22BA18097812780A431A7008E00F228A
S31520000650BB18BA180B217918127809780A401A7033
S315200006600E23FB181A780F23FB181B78110018008D
S31520000670FFF798FE00E0C046BD4605B0F0BDC04677
S31520000680070000806808002080B582B000AFFFF721
S31520000690BFFCFFF7BFFEFB1D00221A700BE0FB1DFF
S315200006A01B7801220A211800FFF713FFFB1D1A7879
S315200006B0FB1D01321A70FB1D1B785BB2002BEEDA94
S315200006C0FB1D00221A700BE0FB1D1B78012219006E
S315200006D00A20FFF7FEFEFB1D1A78FB1D01321A7059
S315200006E0FB1D1B783F2BEFD9FA235B001800FFF781
S315200006F0E0FCFB1D00221A700BE0FB1D1B7800227C
S315200007000A211800FFF7E5FEFB1D1A78FB1D0132B2
S315200007101A70FB1D1B785BB2002BEEDAFB1D002244
S315200007201A700BE0FB1D1B78002219000A20FFF728
S31520000730D0FEFB1D1A78FB1D01321A70FB1D1B789B
S315200007403F2BEFD9C046C046BD4602B080BDC0464D
S31520000750002243088B4274D303098B425FD3030ADA
S315200007608B4244D3030B8B4228D3030C8B420DD3ED
S31520000770FF22090212BA030C8B4202D3121209027B
S3152000078065D0030B8B4219D300E0090AC30B8B42B9
S3152000079001D3CB03C01A5241830B8B4201D38B0367
S315200007A0C01A5241430B8B4201D34B03C01A52410C
S315200007B0030B8B4201D30B03C01A5241C30A8B424F
S315200007C001D3CB02C01A5241830A8B4201D38B023A
S315200007D0C01A5241430A8B4201D34B02C01A5241DE
S315200007E0030A8B4201D30B02C01A5241CDD2C30950
S315200007F08B4201D3CB01C01A524183098B4201D3CC
S315200008008B01C01A524143098B4201D34B01C01AB6
S31520000810524103098B4201D30B01C01A5241C3082E
S315200008208B4201D3CB00C01A524183088B4201D39D
S315200008308B00C01A524143088B4201D34B00C01A89
S315200008405241411A00D20146524110467047FFE7F5
S3152000085001B5002000F006F802BDC0460029F7D0F9
S3152000086076E770477047C0463E05002048050020C1
S31520000870520500205C05002066050020700500203A
S30D200008807A0500208405002002
S70520000000DA
