S01B00002E2F44656275672F666C6970666C6F705F6972712E7331395F
S315200000000248854600F076F8FEE7C04600C001208B
S3152000001080B500AF074B1B780133DAB2054B1A7057
S31520000020054B1A68044B08210A431A60C046BD4690
S3152000003080BDC04610010020143C014080B500AFB1
S31520000040224B1A68214B120C12041A601F4B1A6895
S315200000501E4B1F490A431A601E4B1A681D4B120C71
S3152000006012041A601B4A1B4B12681A601A4B1B8813
S315200000709BB2194A1B051B0D9BB21380164B1B887E
S315200000809BB215498022D20113439BB20B80134B9E
S315200000901A68124B08210A431A60114B1A68104B32
S315200000A008210A431A600F4B1A680E4B08218A430F
S315200000B01A600D4B0D4A1A600D4B1A680C4B8021A5
S315200000C089000A431A60C046BD4680BD000C024026
S315200000D0555500000010024008380140003C014000
S315200000E0083C01400C3C014064C001201100002066
S315200000F000E100E080B500AFFFF7A0FF024A034B06
S315200001001B781370FAE7C046140C02401001002039
S3092000011000000000C5
S70520000000DA
