S01300002E2F44656275672F506F6E672E733139DA
S315200000000248854600F0ADFFFEE7C04600C001204D
S3152000001080B500AF0C4B00221A700C4B29221A60B7
S315200000200B4B00221A60084B05221A70C046094B5A
S315200000301B78DBB21A0001231340F8D1024B0022B1
S315200000401A70C046BD4680BD10E000E014E000E016
S3152000005018E000E012E000E080B584B000AF7860E0
S315200000607B68FA229100180000F0F2FF03007B6003
S315200000707B6801337B600023FB6004E0FFF7C8FF49
S31520000080FB680133FB607B689A00FB689A42F5D8CF
S31520000090C046C046BD4604B080BD80B584B000AF22
S315200000A078607B68FA229100180000F0D1FF0300E7
S315200000B07B607B6801337B600023FB6007E0FA23CB
S315200000C09B001800FFF7C8FFFB680133FB60FB6845
S315200000D07A689A42F3D8C046C046BD4604B080BD71
S315200000E080B500AFFFF794FFFFF792FFC046BD46ED
S315200000F080BD80B582B000AF0200FB1D1A700D4B8B
S315200001001B78DBB25AB2FB1D1B785BB204218B43F2
S315200001105BB213435AB2074BD2B21A70054B1B7807
S31520000120DBB2044A04218B43DBB21370C046BD46C2
S3152000013002B080BD1410024080B582B000AF02002C
S31520000140FB1D1A700A4B1B78DBB25BB2FA1D1278C4
S3152000015004210A43D2B252B2D24352B213405AB207
S31520000160034BD2B21A70C046BD4602B080BDC0460F
S315200001701410024080B584B000AF0200FB1D1A7037
S315200001800F23FB1800221A70FB1D1B78182B1AD080
S315200001901DDC102B10D01ADC002B02D0082B04D02B
S315200001A015E01820FFF7C8FF12E01020FFF7C4FF64
S315200001B00820FFF79EFF0BE00820FFF7BDFF102069
S315200001C0FFF797FF04E01820FFF793FF00E0C046F3
S315200001D0BD4604B080BD80B582B000AF4020FFF799
S315200001E0ABFF164B164A1A600220FFF782FF01204A
S315200001F0FFF7A2FFFFF774FF4020FFF77AFFFFF714
S315200002006FFF104B1B78DAB2FB1D7F218A431A70D1
S315200002104020FFF791FFFFF763FFFB1D1B78002BA4
S3152000022000D0E9E7C0464020FFF763FF034B064AAC
S315200002301A60C046BD4602B080BDC04600100240CE
S3152000024055550000111002405555555580B584B0BE
S3152000025000AF0200FB1D1A704020FFF76DFF1B4BFD
S315200002601B4A1A600320FFF744FFFB1D1B7818006A
S31520000270FFF780FFFFF734FF4020FFF73AFFFFF735
S315200002802FFF144A0F23FB1812781A704020FFF70D
S3152000029053FF0E4B104A1A60FB1D1B78082B04D106
S315200002A00820FFF767FFFFF796FFFB1D1B78102B33
S315200002B004D11020FFF75EFFFFF78DFF0F23FB18F9
S315200002C01B781800BD4604B080BDC0460010024011
S315200002D055550000111002405555555580B582B030
S315200002E000AF0200FB1D1A70BB1D0A1C1A701A4AA9
S315200002F0FB1D1B781370BB1D1B781800FFF73AFFF8
S31520000300FFF7EEFE4020FFF7F4FEFFF7E9FE402060
S31520000310FFF712FFBB1D1B780822134004D00820CC
S31520000320FFF728FFFFF757FFBB1D1B78102213404E
S3152000033004D01020FFF71EFFFFF74DFF064B0022CB
S315200003401A704020FFF7D5FE0020FFF713FFC046A6
S31520000350BD4602B080BDC0461510024080B582B0B1
S3152000036000AF0200FB1D1A70BB1D0A1C1A7040202C
S31520000370FFF7E2FEBB1D1B781800FFF7FBFE0320EC
S31520000380FFF7DAFEBB1D1A78FB1D1B78110018003B
S31520000390FFF7A4FFC046BD4602B080BD80B582B03F
S315200003A000AF0200FB1D1A70BB1D0A1C1A704020EC
S315200003B0FFF7C2FEBB1D1B781800FFF7DBFE0120EE
S315200003C0FFF797FE0220FFF7B7FEBB1D1A78FB1D2D
S315200003D01B7811001800FFF781FFC046BD4602B00A
S315200003E080BD80B582B000AF0200FB1D1A70FB1DD8
S315200003F01B781800FFF72AFFFB1D1B781800FFF754
S3152000040025FF03001800BD4602B080BD80B500AFB1
S315200004104020FFF76EFE0A20FFF71EFE7820FFF72A
S315200004208BFE1E20FFF739FE2020FFF762FE1821E3
S315200004303E20FFF793FF18213F20FFF78FFF18215B
S31520000440C020FFF78BFF18214020FFF787FF1821D8
S31520000450B820FFF783FF0020FFF78CFEC046BD467D
S3152000046080BD80B582B000AFFB1D00221A7023E04C
S31520000470FB1D1B78482252421343DBB21821180079
S31520000480FFF76CFF18214020FFF768FFBB1D0022F5
S315200004901A7008E018210020FFF780FFBB1D1A788C
S315200004A0BB1D01321A70BB1D1B783F2BF2D9FB1DD9
S315200004B01A78FB1D01321A70FB1D1B78072BD7D922
S315200004C0C046C046BD4602B080BDF0B585B000AF7F
S315200004D0040008001100FB1D221C1A70BB1D021C03
S315200004E01A707B1D0A1C1A70FB1D1B78802B00D9E5
S315200004F0C7E0BB1D1B78402B00D9C2E0FB1D1B7833
S31520000500002B00D1BDE0BB1D1B78002B00D1B8E02D
S31520000510BB1D1B78013B002B00DA0733DB101A00CA
S315200005200C23FB181A70BB1D1B78013B574A13403E
S3152000053004D5013B0822524213430133072B2CD802
S315200005409A00534BD3181B689F460F23FB18012292
S315200005501A7023E00F23FB1802221A701EE00F23C5
S31520000560FB1804221A7019E00F23FB1808221A70B0
S3152000057014E00F23FB1810221A700FE00F23FB182C
S3152000058020221A700AE00F23FB1840221A7005E079
S315200005900F23FB1880221A7000E0C0467B1D1B78B3
S315200005A0002B05D10F22BB18BA181278D2431A7025
S315200005B0FB1D1B78402B0AD90E23FB1810221A701C
S315200005C00D23FB18FA1D1278413A1A7009E00E2302
S315200005D0FB1808221A700D23FB18FA1D1278013A0F
S315200005E01A700D26BB191B7840221343DAB20E254A
S315200005F07B191B7819001000FFF7B0FE0C23FB189F
S315200006001B78482252421343DAB27B191B78190011
S315200006101000FFF7A3FE0B23FC187B191B7818008C
S31520000620FFF7DFFE03002370BB191B78402213431C
S31520000630DAB27B191B7819001000FFF78FFE7B1D9D
S315200006401B78012B09D10F217B1879180B22BA1898
S31520000650097812780A431A7008E00F22BB18BA18D4
S315200006600B217918127809780A401A700E23FB1884
S315200006701A780F23FB181B7811001800FFF78EFE3F
S3152000068000E0C046BD4605B0F0BDC046070000806C
S315200006906012002080B584B000AF78600023FB6034
S315200006A020E07B681A68FB6804335B00D3180433A8
S315200006B01A787B68DB68DBB2D318D8B27B681A68F5
S315200006C0FB6804335B00D31805331A787B681B69F3
S315200006D0DBB2D318DBB201221900FFF7F6FEFB6866
S315200006E00133FB607B681B681B68FA689A42D8DB7B
S315200006F0C046C046BD4604B080BD80B584B000AFBC
S3152000070078600023FB6020E07B681A68FB6804336E
S315200007105B00D31804331A787B68DB68DBB2D31806
S31520000720D8B27B681A68FB6804335B00D31805339C
S315200007301A787B681B69DBB2D318DBB2002219005A
S31520000740FFF7C3FEFB680133FB607B681B681B68F1
S31520000750FA689A42D8DBC046C046BD4604B080BD82
S3152000076080B582B000AF78607B68032B1BD07B6896
S31520000770032B1CDC7B68022B11D07B68022B16DC3A
S315200007807B68002B03D07B68012B04D00FE00C4B39
S3152000079010221A700FE00A4B20221A700BE0084B29
S315200007A040221A7007E0064B80221A7003E0044BA1
S315200007B000221A70C046C046BD4602B080BDC04663
S315200007C0150C024080B582B000AF78607B68032BA1
S315200007D01BD07B68032B1CDC7B68022B11D07B682B
S315200007E0022B16DC7B68002B03D07B68012B04D000
S315200007F00FE00C4B10221A700FE00A4B20221A70C1
S315200008000BE0084B40221A7007E0064B80221A7034
S3152000081003E0044B00221A70C046C046BD4602B013
S3152000082080BDC046140C024080B582B000AF124A8B
S31520000830FB1D12781A70FB1D1B780822134001D06D
S31520000840032315E0FB1D1B780422134001D002234D
S315200008500EE0FB1D1B780222134001D0012307E086
S31520000860FB1D1B780122134001D0002300E0042346
S315200008701800BD4602B080BD110C024080B582B082
S3152000088000AF124AFB1D12781A70FB1D1B78082236
S31520000890134001D0032315E0FB1D1B7804221340CF
S315200008A001D002230EE0FB1D1B780222134001D04B
S315200008B0012307E0FB1D1B780122134001D00023F2
S315200008C000E004231800BD4602B080BD100C024093
S315200008D0B0B586B000AF7860396008217B18084A29
S315200008E031CA31C312681A607A187B689B00D21805
S315200008F03B68D3181B781800BD4606B0B0BDC0466D
S315200009008012002080B582B000AF00237B601CE0FF
S315200009107B681800FFF724FFFFF786FF0200FB1C09
S315200009201A70FB1C1B78042B0CD0FB1C1A787B68D6
S3152000093011001800FFF7CCFF0200BB1C1A70BB1C6D
S315200009401B7806E07B6801337B607B68032BDFDD49
S31520000950FF231800BD4602B080BD80B582B000AF2F
S3152000096000237B601CE07B681800FFF72BFFFFF756
S3152000097085FF0200FB1C1A70FB1C1B78042B0CD075
S31520000980FB1C1A787B6811001800FFF7A1FF0200F4
S31520000990BB1C1A70BB1C1B7806E07B6801337B608E
S315200009A07B68032BDFDDFF231800BD4602B080BD28
S315200009B080B584B000AFF860B9607A60FB68BA6829
S315200009C05A60FB687A689A60C046BD4604B080BD0E
S315200009D080B584B000AF786039607B681800FFF777
S315200009E08CFE7B68DA687B685B68D318FB607B6863
S315200009F01A697B689B68D318BB60FB68002B16DCE2
S31520000A007B684022DA607B6820221A612E4B1B7895
S31520000A100133DAB22C4B1A7002210F2000F0F9F9BB
S31520000A20294B1B783033180000F01AFA44E07B6813
S31520000A301B685A68FB68D318802B16DD7B6840221A
S31520000A40DA607B6820221A61204B1B780133DAB2E8
S31520000A501E4B1A7001210E2000F0DBF91B4B1B7870
S31520000A603033180000F0FCF926E0BB68002B08DCC8
S31520000A707B689B685A427B689A607B6801221A6170
S31520000A801AE07B681B689B684022D31ABA689A4290
S31520000A900CDD7B689B685A427B689A607B681B6882
S31520000AA09B684022D21A7B681A6105E07B68FA6847
S31520000AB0DA607B68BA681A617B681800FFF7EAFD7E
S31520000AC0C046BD4604B080BD6811002069110020D3
S31520000AD080B584B000AFF860B9607A607B68DA6868
S31520000AE07B681B685B68D218FB68DB689A4221DB4F
S31520000AF07B68DA68FB68D968FB681B685B68CB187B
S31520000B009A4217DA7B681A697B681B689B68D31838
S31520000B10BA689A420EDC7B681A69FB681B6899687A
S31520000B20BB68CB189A4205DA7B681800FFF7E5FD0B
S31520000B30012300E000231800BD4604B080BD80B527
S31520000B4084B000AF786039607B681800FFF7D5FD68
S31520000B507B681A697B689B68D318FB603A68F968DA
S31520000B607B681800FFF7B4FF031E19D07B68DB688B
S31520000B703F2B08DC3B685B685A423B685A603B68FF
S31520000B803422DA6007E03B685B685A423B685A6069
S31520000B903B684A22DA603B681800FFF77BFD23E0BA
S31520000BA0FB68002B08DC7B689B685A427B689A604E
S31520000BB07B6801221A6117E07B681B689B684022CC
S31520000BC0D31AFA689A420CDD7B689B685A427B6886
S31520000BD09A607B681B689B684022D21A7B681A61E0
S31520000BE002E07B68FA681A617B681800FFF752FDFD
S31520000BF0C046BD4604B080BD80B582B000AF0200BD
S31520000C00FB1D1A70074B1B78DAB2FB1D1B781343AA
S31520000C10DBB2044A04210B43DBB21370C046BD4647
S31520000C2002B080BD1410024080B584B000AF02002F
S31520000C30FB1D1A700F203B18FA1D1278D2431A702A
S31520000C400A4B1B78DBB209493A1812781340DBB2FB
S31520000C500B70064B1B78DBB2044A04210B43DBB234
S31520000C601370C046BD4604B080BDC0461410024075
S31520000C7080B582B000AF0200FB1D1A700120FFF77D
S31520000C80D3FF0220FFF7D0FFFB1D1B78180000F0D2
S31520000C9019F8C046BD4602B080BD80B582B000AF0F
S31520000CA00200FB1D1A700120FFF7A6FF0220FFF7A6
S31520000CB0BBFFFB1D1B78180000F004F8C046BD469C
S31520000CC002B080BD80B582B000AF0200FB1D1A7055
S31520000CD04020FFF791FF064AFB1D1B78137040202A
S31520000CE0FFF7A2FFFFF794F9C046BD4602B080BDCC
S31520000CF01510024080B582B000AF4020FFF77CFF80
S31520000D00FFF786F9FFF784F9064AFB1D12781A7059
S31520000D104020FFF789FFFB1D1B781800BD4602B057
S31520000D2080BDC0461110024080B582B000AF0A4B8C
S31520000D300A4A1A600120FFF75FFF0220FFF75CFFD7
S31520000D40074AFB1D1A70044B064A1A60FB1D1B78C6
S31520000D501800BD4602B080BD001002405555000067
S31520000D60F50C00205555555590B583B000AF0B4B6B
S31520000D700B4A1A600120FFF757FF0220FFF73CFFBE
S31520000D80FC1DFFF7B7FF03002370044B054A1A60CA
S31520000D90FB1D1B781800BD4603B090BD0010024015
S31520000DA0555500005555555580B582B000AF020007
S31520000DB0FB1D1A70C046FFF7D7FF03001A008023D9
S31520000DC01340802BF7D00820FFF746F9FB1D1B7830
S31520000DD01800FFF74DFF0220FFF75FF9C046BD461A
S31520000DE002B080BD80B500AF0120FFF71DFF0220B5
S31520000DF0FFF71AFF3820FFF7D7FF0E20FFF7D4FFA3
S31520000E000120FFF7D1FF0420FFF7CEFFC046BD46E5
S31520000E1080BD80B584B000AF786039600120FFF7CF
S31520000E2003FF0220FFF700FF7B68DAB20F217B1851
S31520000E30013A1A703B68022B04D17B187A18127873
S31520000E4040321A700F23FB181B788022524213431C
S31520000E50DBB21800FFF7A8FFC046BD4604B080BD30
S31520000E6080B582B000AF0200FB1D1A70C046FFF7A6
S31520000E707BFF03001A0001231340F8D10820FFF757
S31520000E80EBF8FB1D1B781800FFF707FF3220FFF752
S31520000E90E3F8C046BD4602B080BDB0B58AB000AF0B
S31520000EA014243B191B4A23CA23C31188198092781C
S31520000EB09A703B1D184A23CA23C312681A60FFF78B
S31520000EC091FF01210120FFF7A4FF3B197B6206E079
S31520000ED07B6A5A1C7A621B781800FFF7C1FF7B6A6F
S31520000EE01B78002BF4D102210120FFF792FF3B1D36
S31520000EF07B6206E07B6A5A1C7A621B781800FFF731
S31520000F00AFFF7B6A1B78002BF4D1C046BD460AB0E2
S31520000F10B0BDC04690120020A012002080B500AFC0
S31520000F20074B084A1A60084B084A1A60084B094AB8
S31520000F301A60094B00221A80C046BD4680BDC046B5
S31520000F400010024055555555000C024000550055DD
S31520000F50300C0240AA00AA00080C024080B500AF5F
S31520000F60FEE790B587B000AF364B7B61354B3B61D2
S31520000F70354BFB60354BBB60FFF7D0FFFFF78DFF8E
S31520000F80FFF744FA7B690F225A607B690F229A6029
S31520000F907B69DB6979697A6910009847FB68DB69A8
S31520000FA07969FA6810009847BB68DB697969BA687D
S31520000FB0100098472820FFF770F8FC1DFFF7A2FCC9
S31520000FC003002370BC1DFFF7C8FC03002370FB1D24
S31520000FD01B78022B02D0052B08D00EE0FB681B6A7B
S31520000FE014225242F868002198470DE0FB681B6ADC
S31520000FF0F86814220021984706E0FB681B6AF86807
S31520001000002200219847C046BB1D1B78022B02D028
S31520001010052B08D00EE0BB681B6A14225242B86822
S31520001020002198470DE0BB681B6AB868142200218E
S31520001030984706E0BB681B6AB868002200219847DB
S31520001040C046A5E73C120020B0110020D411002094
S31520001050002243088B4274D303098B425FD3030AD1
S315200010608B4244D3030B8B4228D3030C8B420DD3E4
S31520001070FF22090212BA030C8B4202D31212090272
S3152000108065D0030B8B4219D300E0090AC30B8B42B0
S3152000109001D3CB03C01A5241830B8B4201D38B035E
S315200010A0C01A5241430B8B4201D34B03C01A524103
S315200010B0030B8B4201D30B03C01A5241C30A8B4246
S315200010C001D3CB02C01A5241830A8B4201D38B0231
S315200010D0C01A5241430A8B4201D34B02C01A5241D5
S315200010E0030A8B4201D30B02C01A5241CDD2C30947
S315200010F08B4201D3CB01C01A524183098B4201D3C3
S315200011008B01C01A524143098B4201D34B01C01AAD
S31520001110524103098B4201D30B01C01A5241C30825
S315200011208B4201D3CB00C01A524183088B4201D394
S315200011308B00C01A524143088B4201D34B00C01A80
S315200011405241411A00D20146524110467047FFE7EC
S3152000115001B5002000F006F802BDC0460029F7D0F0
S3152000116076E770477047C046000000001C0000006C
S31520001170020000000E000000000000010002000333
S31520001180000400050006000700080009000A000BFD
S31520001190000C000D010001010102010301040105FB
S315200011A00106010701080109010A010B010C010DC5
S315200011B06C1100200000000000000000320000003A
S315200011C01900000095060020FB0600203F0B00209A
S315200011D0B10900206C110020000000000000000072
S315200011E04E0000001900000095060020FB06002096
S315200011F03F0B0020B10900200C0000000400000075
S3152000120004000000000100020100010101020103A7
S315200012100200020102020203030103020000000091
S315200012200000000000000000000000000000000098
S31520001230000000000000000000000000F81100205F
S315200012400000000000000000400000002000000018
S3152000125095060020FB060020D1090020B1090020B8
S315200012604A050020540500205E0500206805002060
S31520001270720500207C0500208605002090050020B0
S315200012800102030A0405060B0708090C0F000E0DC0
S31520001290506C61796572204C6566743A2030000086
S315200012A0506C617965722052696768743A20300003
S70520000000DA
