S01F00002E2F44656275672F666C6970666C6F705F6972715F61636B2E733139CD
S315200000000248854600F0D0F8FEE7C04600C0012031
S3152000001080B500AF304B1A682F4B08210A431A606F
S315200000202E4B1B78DBB21A000123134015D02C4B24
S315200000301B78DBB22A4A10210B43DBB21370284B04
S315200000401B78DBB2264A10218B43DBB21370254B7B
S315200000501B780133DAB2234B1A70204B1B78DBB2A4
S315200000601A000223134012D01D4B1B78DBB21C4A08
S3152000007020210B43DBB21370194B1B78DBB2184AD5
S3152000008020218B43DBB21370164B00221A70134BC0
S315200000901B78DBB21A00042313401AD0104B1B78AE
S315200000A0DBB20F4A40210B43DBB213700C4B1B789B
S315200000B0DBB20B4A40218B43DBB21370094B1B7812
S315200000C0002B03D0074B00221A7002E0054BFF22BB
S315200000D01A70C046BD4680BD143C01401010024037
S315200000E014100240C401002080B500AF244B1A68CA
S315200000F0234B120C12041A60214B1A68204B2149FB
S315200001000A431A60204B1A681F4B120C12041A60FD
S315200001101D4B1A681C4BAA21C9010A431A601B4BA6
S315200001201B889BB2194A1B051B0D9BB21380174BCC
S315200001301B889BB215498022D20113439BB20B80A8
S31520000140134B1A68124B08210A431A60114B1A687E
S31520000150104B08210A431A600F4B1A680E4B0821D0
S315200001608A431A600D4B0E4A1A600E4B1A680D4BC5
S31520000170802189000A431A60C046BD4680BDC0461C
S31520000180000C02405555000000100240083801407E
S31520000190003C0140083C01400C3C014064C0012069
S315200001A01100002000E100E080B500AFFFF79CFFC2
S315200001B0024A034B1B781370FAE7C046140C024020
S30D200001C0C4010020000000002C
S70520000000DA
