S01F00002E2F44656275672F666C6970666C69705F6972715F61636B2E733139D3
S315200000000248854600F0E4F8FEE7C04600C001201D
S3152000001080B500AF314B1A68304B08210A431A606D
S315200000202F4B1B78DBB21A000123134016D02D4B21
S315200000301B78DBB22B4A10210B43DBB21370294B02
S315200000401B78DBB2274A10218B43DBB21370264B79
S315200000501B78DBB20133DAB2234B1A70204B1B78A4
S31520000060DBB21A000223134012D01E4B1B78DBB2E0
S315200000701C4A20210B43DBB213701A4B1B78DBB2D0
S31520000080184A20218B43DBB21370174B00221A70BB
S31520000090134B1B78DBB21A00042313401BD0114BE1
S315200000A01B78DBB20F4A40210B43DBB213700D4B9A
S315200000B01B78DBB20B4A40218B43DBB213700A4B11
S315200000C01B78DBB2002B03D0074B00221A7002E00C
S315200000D0054BFF221A70C046BD4680BD143C014028
S315200000E01010024014100240EC01002080B500AF31
S315200000F0294B18221A60294B8022D2011A60284BDC
S31520000100284A1A60284B1A68274B120C12041A60C8
S31520000110254B1A68244B25490A431A60244B1A6832
S31520000120234B120C12041A60214B1A68204BAA2169
S31520000130C9010A431A601F4B1B889BB21D4A1B0527
S315200001401B0D9BB213801B4B1B889BB21949802227
S31520000150D20113439BB20B80174B1A68164B08210A
S315200001600A431A60154B1A68144B08210A431A6071
S31520000170134B1A68124B08218A431A60114B124AF4
S315200001801A60124B1A68114B802189000A431A60A3
S31520000190C046BD4680BDC046303802404438024085
S315200001A008ED00E000C00120000C0240555500007B
S315200001B00010024008380140003C0140083C014044
S315200001C00C3C014064C001201100002000E100E049
S315200001D080B500AFFFF78AFF024A034B1B78DBB2DC
S315200001E01370F9E7140C0240EC0100200000000017
S70520000000DA
