S01500002E2F44656275672F6B65797061642E733139EE
S315200000000248854600F014F9FEE7C04600C00120EC
S3152000001080B500AF134B1A68124B1204120C1A60EB
S31520000020104B1A680F4BAA21C9050A431A600E4BBA
S315200000301B880D4AFF210B409BB213800A4A0A4BAC
S3152000004012881A80094B1A68084B1204120C1A607F
S31520000050064B1A68054BAA2109040A431A60C046B2
S31520000060BD4680BD000C0240040C02400C0C024030
S3152000007080B500AF074B1A68064B120C12041A60A3
S31520000080044B1A68034B04490A431A60C046BD460E
S3152000009080BDC046000C02405555000080B500AF1B
S315200000A0FFF7B6FFFFF7E4FFC046BD4680BD80B52B
S315200000B082B000AF78607B68042B1BD07B68042B52
S315200000C01CD87B68032B11D07B68032B16D87B6842
S315200000D0012B03D07B68022B04D00FE00B4B1022A0
S315200000E01A700FE0094B20221A700BE0074B4022B2
S315200000F01A7007E0054B80221A7003E0034B00229A
S315200001001A70C046C046BD4602B080BD150C0240DE
S3152000011080B582B000AF124AFB1D12781A70FB1D03
S315200001201B780822134001D0042315E0FB1D1B7801
S315200001300422134001D003230EE0FB1D1B7802226C
S31520000140134001D0022307E0FB1D1B780122134038
S3152000015001D0012300E000231800BD4602B080BD77
S31520000160110C0240B0B586B000AF0200FB1D1A701C
S3152000017008203B180B4A32CA32C312681A60FB1D8C
S315200001801B780F2B06D8FB1D1B7807493A18D35C22
S315200001900B7002E0044B00221A70C046BD4606B022
S315200001A0B0BDC04648020020140C024090B587B06E
S315200001B000AF3B1D1D4A13CA13C312681A601623CB
S315200001C0FB1800221A701723FB1801221A7020E050
S315200001D017243B191B781800FFF769FFFFF798FFD4
S315200001E0020016217B181A707B181B78002B0AD068
S315200001F03B191B785A1E7B181B78013B391D920030
S315200002008A18D35C0EE017217B181A787B180132E6
S315200002101A701723FB181B78042BD9D90020FFF757
S3152000022046FFFF231800BD4607B090BD58020020A8
S3152000023080B500AFFFF732FFFFF7B8FF03001800C5
S31520000240FFF790FFF8E7C0463F065B4F666D7D07D8
S315200002507F6F777C395E79710102030A0405060BEC
S30D200002600708090C0E000F0D22
S70520000000DA
