S01900002E2F44656275672F64656C617946495845442E733139E9
S315200000000248854600F082F8FEE7C04600C001207F
S3152000001080B500AF074B1A68064B120C12041A6003
S31520000020044B1A68034B04490A431A60C046BD466E
S3152000003080BDC046001002405555000080B500AF77
S315200000400C4B00221A700C4B29221A600B4B0022F3
S315200000501A60084B05221A70C046094B1B78DBB282
S315200000601A0001231340F8D1024B00221A70C04611
S31520000070BD4680BD10E000E014E000E018E000E09E
S3152000008012E000E080B584B000AF78607B68FA2289
S315200000909100180000F052F803007B607B68013362
S315200000A07B600023FB6004E0FFF7C8FFFB68013399
S315200000B0FB607B689A00FB689A42F5D8C046C0462A
S315200000C0BD4604B080BD80B584B000AF78607B6843
S315200000D0FA229100180000F031F803007B607B685B
S315200000E001337B600023FB6007E0FA239B001800A6
S315200000F0FFF7C8FFFB680133FB60FB687A689A420A
S31520000100F3D8C046C046BD4604B080BD80B500AF1A
S31520000110FFF77EFF084BFF221A80FA235B001800A8
S31520000120FFF7D1FF044B00221A80FA235B00180048
S31520000130FFF7C9FFEEE7C04614100240002243082D
S315200001408B4274D303098B425FD3030A8B4244D379
S31520000150030B8B4228D3030C8B420DD3FF220902BB
S3152000016012BA030C8B4202D31212090265D0030B7A
S315200001708B4219D300E0090AC30B8B4201D3CB0370
S31520000180C01A5241830B8B4201D38B03C01A5241B2
S31520000190430B8B4201D34B03C01A5241030B8B42B4
S315200001A001D30B03C01A5241C30A8B4201D3CB029F
S315200001B0C01A5241830A8B4201D38B02C01A524184
S315200001C0430A8B4201D34B02C01A5241030A8B4287
S315200001D001D30B02C01A5241CDD2C3098B4201D39F
S315200001E0CB01C01A524183098B4201D38B01C01A1D
S315200001F0524143098B4201D34B01C01A5241030994
S315200002008B4201D30B01C01A5241C3088B4201D342
S31520000210CB00C01A524183088B4201D38B00C01AEF
S31520000220524143088B4201D34B00C01A5241411A16
S3152000023000D20146524110467047FFE701B5002023
S3152000024000F006F802BDC0460029F7D076E77047D1
S309200002507047C046C7
S70520000000DA
