S01700002E2F44656275672F6175746F706F6E672E733139FD
S315200000000248854600F01CFCFEE7C04600C00120E1
S3152000001080B500AF0C4B00221A700C4B29221A60B7
S315200000200B4B00221A60084B05221A70C046094B5A
S315200000301B78DBB21A0001231340F8D1024B0022B1
S315200000401A70C046BD4680BD10E000E014E000E016
S3152000005018E000E012E000E080B584B000AF7860E0
S315200000600023FB6004E0FFF7D3FFFB680133FB604E
S315200000707B689A00FB689A42F5D8C046C046BD46C2
S3152000008004B080BD80B584B000AF78600023FB60EB
S3152000009007E0FA239B001800FFF7DEFFFB68013319
S315200000A0FB60FB687A689A42F3D8C046C046BD46D4
S315200000B004B080BD80B500AFFFF7AAFFFFF7A8FF09
S315200000C0C046BD4680BD80B582B000AF0200FB1D94
S315200000D01A700D4B1B78DBB25AB2FB1D1B785BB234
S315200000E004218B435BB213435AB2074BD2B21A7028
S315200000F0054B1B78DBB2044A04218B43DBB2137019
S31520000100C046BD4602B080BD1410024080B582B004
S3152000011000AF0200FB1D1A700A4B1B78DBB25BB2E4
S31520000120FA1D127804210A43D2B252B2D24352B2F5
S3152000013013405AB2034BD2B21A70C046BD4602B023
S3152000014080BDC0461410024080B584B000AF0200C6
S31520000150FB1D1A700F23FB1800221A70FB1D1B783B
S31520000160182B1AD01DDC102B10D01ADC002B02D035
S31520000170082B04D015E01820FFF7C8FF12E0102046
S31520000180FFF7C4FF0820FFF79EFF0BE00820FFF7CC
S31520000190BDFF1020FFF797FF04E01820FFF793FF1D
S315200001A000E0C046BD4604B080BD80B582B000AF39
S315200001B04020FFF7ABFF164B164A1A600220FFF7C6
S315200001C082FF0120FFF7A2FFFFF774FF4020FFF711
S315200001D07AFFFFF76FFF104B1B78DAB2FB1D7F21EA
S315200001E08A431A704020FFF791FFFFF763FFFB1D3C
S315200001F01B78002B00D0E9E7C0464020FFF763FFBD
S31520000200034B064A1A60C046BD4602B080BDC046B2
S315200002100010024055550000111002405555555505
S3152000022080B584B000AF0200FB1D1A704020FFF796
S315200002306DFF1B4B1B4A1A600320FFF744FFFB1D73
S315200002401B781800FFF780FFFFF734FF4020FFF7E9
S315200002503AFFFFF72FFF144A0F23FB1812781A7064
S315200002604020FFF753FF0E4B104A1A60FB1D1B78E8
S31520000270082B04D10820FFF767FFFFF796FFFB1D29
S315200002801B78102B04D11020FFF75EFFFFF78DFFA0
S315200002900F23FB181B781800BD4604B080BDC0464E
S315200002A00010024055550000111002405555555575
S315200002B080B582B000AF0200FB1D1A70BB1D0A1C60
S315200002C01A701A4AFB1D1B781370BB1D1B78180069
S315200002D0FFF73AFFFFF7EEFE4020FFF7F4FEFFF7A9
S315200002E0E9FE4020FFF712FFBB1D1B7808221340B2
S315200002F004D00820FFF728FFFFF757FFBB1D1B7808
S315200003001022134004D01020FFF71EFFFFF74DFFE9
S31520000310064B00221A704020FFF7D5FE0020FFF77B
S3152000032013FFC046BD4602B080BDC0461510024030
S3152000033080B582B000AF0200FB1D1A70BB1D0A1CDF
S315200003401A704020FFF7E2FEBB1D1B781800FFF74E
S31520000350FBFE0320FFF7DAFEBB1D1A78FB1D1B7878
S3152000036011001800FFF7A4FFC046BD4602B080BDAD
S3152000037080B582B000AF0200FB1D1A70BB1D0A1C9F
S315200003801A704020FFF7C2FEBB1D1B781800FFF72E
S31520000390DBFE0120FFF797FE0220FFF7B7FEBB1D0D
S315200003A01A78FB1D1B7811001800FFF781FFC04645
S315200003B0BD4602B080BD80B582B000AF0200FB1DF5
S315200003C01A70FB1D1B781800FFF72AFFFB1D1B78F0
S315200003D01800FFF725FF03001800BD4602B080BDB8
S315200003E080B500AF4020FFF76EFE0A20FFF734FEEF
S315200003F07820FFF78BFE1E20FFF744FE2020FFF714
S3152000040062FE18213E20FFF793FF18213F20FFF7B9
S315200004108FFF1821C020FFF78BFF18214020FFF700
S3152000042087FF1821B820FFF783FF0020FFF78CFEF7
S31520000430C046BD4680BD80B582B000AFFB1D002200
S315200004401A7023E0FB1D1B78482252421343DBB26D
S3152000045018211800FFF76CFF18214020FFF768FFCE
S31520000460BB1D00221A7008E018210020FFF780FF2C
S31520000470BB1D1A78BB1D01321A70BB1D1B783F2B82
S31520000480F2D9FB1D1A78FB1D01321A70FB1D1B7851
S31520000490072BD7D9C046C046BD4602B080BDF0B5B1
S315200004A085B000AF040008001100FB1D221C1A7045
S315200004B0BB1D021C1A707B1D0A1C1A70FB1D1B78A3
S315200004C0802B00D9C7E0BB1D1B78402B00D9C2E08A
S315200004D0FB1D1B78002B00D1BDE0BB1D1B78002B1C
S315200004E000D1B8E0BB1D1B78013B002B00DA073397
S315200004F0DB101A000C23FB181A70BB1D1B78013B5E
S31520000500574A134004D5013B082252421343013374
S31520000510072B2CD89A00534BD3181B689F460F23C2
S31520000520FB1801221A7023E00F23FB1802221A70EF
S315200005301EE00F23FB1804221A7019E00F23FB1864
S3152000054008221A7014E00F23FB1810221A700FE0ED
S315200005500F23FB1820221A700AE00F23FB184022D3
S315200005601A7005E00F23FB1880221A7000E0C0469F
S315200005707B1D1B78002B05D10F22BB18BA181278C9
S31520000580D2431A70FB1D1B78402B0AD90E23FB1869
S3152000059010221A700D23FB18FA1D1278413A1A7090
S315200005A009E00E23FB1808221A700D23FB18FA1DEA
S315200005B01278013A1A700D26BB191B784022134374
S315200005C0DAB20E257B191B7819001000FFF7B0FE52
S315200005D00C23FB181B78482252421343DAB27B19AC
S315200005E01B7819001000FFF7A3FE0B23FC187B19BC
S315200005F01B781800FFF7DFFE03002370BB191B785A
S3152000060040221343DAB27B191B7819001000FFF73A
S315200006108FFE7B1D1B78012B09D10F217B187918A2
S315200006200B22BA18097812780A431A7008E00F22AA
S31520000630BB18BA180B217918127809780A401A7053
S315200006400E23FB181A780F23FB181B7811001800AD
S31520000650FFF78EFE00E0C046BD4605B0F0BDC046A1
S3152000066007000080E008002080B584B000AFF86065
S31520000670B9607A60FB68BA685A60FB687A689A60E3
S31520000680C046BD4604B080BD80B584B000AF78605A
S315200006900023FB6020E07B681A68FB6804335B005C
S315200006A0D31804331A787B68DB68DBB2D318D8B248
S315200006B07B681A68FB6804335B00D31805331A7805
S315200006C07B681B69DBB2D318DBB201221900FFF766
S315200006D0E6FEFB680133FB607B681B681B68FA68D3
S315200006E09A42D8DBC046C046BD4604B080BD80B520
S315200006F084B000AF78600023FB6020E07B681A6836
S31520000700FB6804335B00D31804331A787B68DB68F4
S31520000710DBB2D318D8B27B681A68FB6804335B0057
S31520000720D31805331A787B681B69DBB2D318DBB282
S3152000073000221900FFF7B3FEFB680133FB607B68DC
S315200007401B681B68FA689A42D8DBC046C046BD467D
S3152000075004B080BD80B584B000AF78607B68180097
S31520000760FFF7C5FF7B68DA687B685B68D318FB6098
S315200007707B681A697B689B68D318BB60FB68002B73
S3152000078008DC7B685B685A427B685A607B6801227A
S31520000790DA603AE07B681B685A68FB68D318802BBE
S315200007A00CDD7B685B685A427B685A607B681B68F5
S315200007B05B688022D21A7B68DA6026E0BB68002B51
S315200007C008DC7B689B685A427B689A607B680122BA
S315200007D01A611AE07B681B689B684022D31ABA68A4
S315200007E09A420CDD7B689B685A427B689A607B68DC
S315200007F01B689B684022D21A7B681A6105E07B68D9
S31520000800FA68DA607B68BA681A617B681800FFF7B5
S315200008103BFFC046BD4604B080BD80B500AF054B4A
S31520000820054A1A60054B18221A6016488047C046AA
S31520000830BD4680BD00100240555555553038024002
S3152000084080B582B000AF0E4B7B60FFF7E6FFFFF767
S31520000850C7FDFFF7F0FD7B681B6A7868012204213B
S3152000086098477B681922DA607B6819221A617B68AF
S31520000870DB697A68100098472820FFF703FCF6E723
S31520000880BC080020090200080C000000040000003B
S315200008900400000000010002010001010102010321
S315200008A0020002010202020303010302000000000B
S315200008B00000000000000000000000008808002062
S315200008C00000000000000000010000000100000000
S315200008D089060020EF060020550700206906002023
S315200008E01E05002028050020320500203C0500209A
S315200008F046050020500500205A05002064050020EA
S70520000000DA
