S01B00002E2F44656275672F6173636969646973706C61792E73313967
S315200000000248854600F0D2F9FEE7C04600C001202E
S3152000001080B500AF0C4B00221A700C4B29221A60B7
S315200000200B4B00221A60084B05221A70C046094B5A
S315200000301B78DBB21A0001231340F8D1024B0022B1
S315200000401A70C046BD4680BD10E000E014E000E016
S3152000005018E000E012E000E080B584B000AF7860E0
S315200000607B68FA229100180000F0E6F903007B6015
S315200000707B6801337B600023FB6004E0FFF7C8FF49
S31520000080FB680133FB607B689A00FB689A42F5D8CF
S31520000090C046C046BD4604B080BD80B584B000AF22
S315200000A078607B68FA229100180000F0C5F90300F9
S315200000B07B607B6801337B600023FB6007E0FA23CB
S315200000C09B001800FFF7C8FFFB680133FB60FB6845
S315200000D07A689A42F3D8C046C046BD4604B080BD71
S315200000E080B582B000AF0200FB1D1A70074B1B784B
S315200000F0DAB2FB1D1B781343DBB2044A04210B43FF
S31520000100DBB21370C046BD4602B080BD141002405B
S3152000011080B584B000AF0200FB1D1A700F203B187B
S31520000120FA1D1278D2431A700A4B1B78DBB20949A2
S315200001303A1812781340DBB20B70064B1B78DBB2F1
S31520000140044A04210B43DBB21370C046BD4604B0FB
S3152000015080BDC0461410024080B582B000AF0200B8
S31520000160FB1D1A700120FFF7D3FF0220FFF7D0FFF7
S31520000170FB1D1B78180000F019F8C046BD4602B0DA
S3152000018080BD80B582B000AF0200FB1D1A70012031
S31520000190FFF7A6FF0220FFF7BBFFFB1D1B78180009
S315200001A000F004F8C046BD4602B080BD80B582B0DE
S315200001B000AF0200FB1D1A704020FFF791FF064A90
S315200001C0FB1D1B7813704020FFF7A2FFFFF720FFCF
S315200001D0C046BD4602B080BD1510024080B582B033
S315200001E000AF4020FFF77CFFFFF712FFFFF710FF5D
S315200001F0064AFB1D12781A704020FFF789FFFB1D67
S315200002001B781800BD4602B080BDC04611100240C2
S3152000021090B583B000AF0B4B0B4A1A600120FFF755
S315200002205FFF0220FFF75CFFFC1DFFF7D7FF0300EF
S315200002302370044B054A1A60FB1D1B781800BD4627
S3152000024003B090BD00100240555500005555555538
S3152000025090B583B000AF0B4B0B4A1A600120FFF715
S3152000026057FF0220FFF73CFFFC1DFFF7B7FF0300F7
S315200002702370044B054A1A60FB1D1B781800BD46E7
S3152000028003B090BD001002405555000055555555F8
S3152000029080B582B000AF0200FB1D1A70C046FFF782
S315200002A0D7FF03001A0080231340802BF7D00820A5
S315200002B0FFF7D2FEFB1D1B781800FFF74DFF02202B
S315200002C0FFF7EBFEC046BD4602B080BD80B500AF4D
S315200002D00120FFF71DFF0220FFF71AFF3820FFF746
S315200002E0D7FF0E20FFF7D4FF0120FFF7D1FF06200E
S315200002F0FFF7CEFFC046BD4680BD80B584B000AFB7
S31520000300786039600120FFF703FF0220FFF700FF26
S315200003107B68DAB20F217B18013A1A703B68022BF0
S3152000032004D17B187A18127840321A700F23FB18E2
S315200003301B78802252421343DBB21800FFF70CFFD2
S31520000340C046BD4604B080BD80B582B000AF020075
S31520000350FB1D1A70C046FFF77BFF03001A0080239F
S315200003601340802BF7D00820FFF776FEFB1D1B7865
S315200003701800FFF706FF3220FFF76EFEC046BD4687
S3152000038002B080BD80B500AF054B18221A602948FF
S315200003908047044B044A1A60C046BD4680BDC0460D
S315200003A0303802400010024055555555B0B58AB038
S315200003B000AF14243B191D4A23CA23C312881A806E
S315200003C03B1D1B4A23CA23C31188198092789A7031
S315200003D0FFF7D8FFFFF77AFF01210120FFF78DFFF6
S315200003E03B197B6207E07B6A1B781800FFF7ACFF9E
S315200003F07B6A01337B627B6A1B78002BF3D1022157
S315200004000120FFF77AFF3B1D7B6206E07B6A5A1CC0
S315200004107A621B781800FFF797FF7B6A1B78002B00
S31520000420F4D1C046BD460AB0B0BDC0465005002036
S315200004306005002009020008002243088B4274D37D
S3152000044003098B425FD3030A8B4244D3030B8B42AF
S3152000045028D3030C8B420DD3FF22090212BA030CB8
S315200004608B4202D31212090265D0030B8B4219D399
S3152000047000E0090AC30B8B4201D3CB03C01A5241B9
S31520000480830B8B4201D38B03C01A5241430B8B4201
S3152000049001D34B03C01A5241030B8B4201D30B03EA
S315200004A0C01A5241C30A8B4201D3CB02C01A524111
S315200004B0830A8B4201D38B02C01A5241430A8B42D4
S315200004C001D34B02C01A5241030A8B4201D30B02BD
S315200004D0C01A5241CDD2C3098B4201D3CB01C01AD7
S315200004E0524183098B4201D38B01C01A52414309E1
S315200004F08B4201D34B01C01A524103098B4201D3CF
S315200005000B01C01A5241C3088B4201D3CB00C01A3B
S31520000510524183088B4201D38B00C01A52414308B3
S315200005208B4201D34B00C01A5241411A00D20146D8
S31520000530524110467047FFE701B5002000F006F84B
S3152000054002BDC0460029F7D076E770477047C046FF
S31520000550416C66616E756D657269736B2000000073
S31520000560446973706C6179202D2074657374000062
S70520000000DA
