S01A00002E2F44656275672F7379737469636B5F6972712E733139B2
S315200000000248854600F06CF8FEE7C04600C0012095
S3152000001080B500AF0A4B00221A700A4B1B685A1E85
S31520000020084B1A60074B1B68002B02DD00F028F8EE
S3152000003002E0054B01221A60C046BD4680BDC0467F
S3152000004010E000E0240100202001002080B500AF50
S31520000050054B064A1A60064B064A1A60064B074AA3
S315200000601A60C046BD4680BD000C02405555555508
S3152000007008ED00E000C001203CC001201100002056
S3152000008080B500AF074B00221A70074BA7221A60D3
S31520000090064B00221A60034B07221A70C046BD4643
S315200000A080BDC04610E000E014E000E018E000E06B
S315200000B080B582B000AF78607B68002B08D07A6864
S315200000C0054B1A60054B00221A60FFF7D9FF00E0A6
S315200000D0C046BD4602B080BD24010020200100207C
S315200000E080B500AFFFF7B2FF0A4B00221A706420DA
S315200000F0FFF7DEFF074B0F221A70074B1B68012BF9
S3152000010003D0064B0F221A70F7E7C046014B002298
S315200001101A70E9E7140C024020010020150C024059
S30D200001200000000000000000B1
S70520000000DA
